{
  "_format": "hh-sol-artifact-1",
  "contractName": "CertifyDoc",
  "sourceName": "contracts/CertifyDoc.sol",
  "abi": [
    {
      "anonymous": false,
      "inputs": [
        {
          "indexed": true,
          "internalType": "bytes32",
          "name": "docHash",
          "type": "bytes32"
        },
        {
          "indexed": true,
          "internalType": "uint256",
          "name": "index",
          "type": "uint256"
        }
      ],
      "name": "CertificateIssued",
      "type": "event"
    },
    {
      "inputs": [
        {
          "internalType": "uint256",
          "name": "index",
          "type": "uint256"
        }
      ],
      "name": "callCertificate",
      "outputs": [
        {
          "internalType": "bytes32",
          "name": "",
          "type": "bytes32"
        },
        {
          "internalType": "address",
          "name": "",
          "type": "address"
        },
        {
          "internalType": "address",
          "name": "",
          "type": "address"
        },
        {
          "internalType": "string",
          "name": "",
          "type": "string"
        },
        {
          "internalType": "uint256",
          "name": "",
          "type": "uint256"
        }
      ],
      "stateMutability": "view",
      "type": "function"
    },
    {
      "inputs": [
        {
          "internalType": "uint256",
          "name": "",
          "type": "uint256"
        }
      ],
      "name": "certificates",
      "outputs": [
        {
          "internalType": "bytes32",
          "name": "docHash",
          "type": "bytes32"
        },
        {
          "internalType": "address",
          "name": "issuer",
          "type": "address"
        },
        {
          "internalType": "address",
          "name": "recipient",
          "type": "address"
        },
        {
          "internalType": "uint256",
          "name": "datetime",
          "type": "uint256"
        },
        {
          "internalType": "string",
          "name": "description",
          "type": "string"
        }
      ],
      "stateMutability": "view",
      "type": "function"
    },
    {
      "inputs": [
        {
          "internalType": "bytes32",
          "name": "_docHash",
          "type": "bytes32"
        },
        {
          "internalType": "address",
          "name": "_recipient",
          "type": "address"
        },
        {
          "internalType": "string",
          "name": "_description",
          "type": "string"
        }
      ],
      "name": "certify",
      "outputs": [],
      "stateMutability": "nonpayable",
      "type": "function"
    },
    {
      "inputs": [
        {
          "internalType": "bytes32",
          "name": "_docHash",
          "type": "bytes32"
        }
      ],
      "name": "checkDocHash",
      "outputs": [
        {
          "internalType": "uint256[]",
          "name": "",
          "type": "uint256[]"
        }
      ],
      "stateMutability": "view",
      "type": "function"
    },
    {
      "inputs": [
        {
          "internalType": "address",
          "name": "_requestedAddress",
          "type": "address"
        }
      ],
      "name": "checkIssuer",
      "outputs": [
        {
          "internalType": "uint256[]",
          "name": "",
          "type": "uint256[]"
        }
      ],
      "stateMutability": "view",
      "type": "function"
    },
    {
      "inputs": [
        {
          "internalType": "bytes32",
          "name": "_docHash",
          "type": "bytes32"
        }
      ],
      "name": "checkOwner",
      "outputs": [
        {
          "internalType": "bool",
          "name": "",
          "type": "bool"
        }
      ],
      "stateMutability": "view",
      "type": "function"
    },
    {
      "inputs": [
        {
          "internalType": "address",
          "name": "_requestedAddress",
          "type": "address"
        }
      ],
      "name": "checkRecipient",
      "outputs": [
        {
          "internalType": "uint256[]",
          "name": "",
          "type": "uint256[]"
        }
      ],
      "stateMutability": "view",
      "type": "function"
    },
    {
      "inputs": [
        {
          "internalType": "bytes32",
          "name": "",
          "type": "bytes32"
        },
        {
          "internalType": "uint256",
          "name": "",
          "type": "uint256"
        }
      ],
      "name": "docHashMap",
      "outputs": [
        {
          "internalType": "uint256",
          "name": "",
          "type": "uint256"
        }
      ],
      "stateMutability": "view",
      "type": "function"
    },
    {
      "inputs": [
        {
          "internalType": "bytes32",
          "name": "",
          "type": "bytes32"
        }
      ],
      "name": "docHashOwnerMap",
      "outputs": [
        {
          "internalType": "address",
          "name": "",
          "type": "address"
        }
      ],
      "stateMutability": "view",
      "type": "function"
    },
    {
      "inputs": [
        {
          "internalType": "address",
          "name": "",
          "type": "address"
        },
        {
          "internalType": "uint256",
          "name": "",
          "type": "uint256"
        }
      ],
      "name": "issuerMap",
      "outputs": [
        {
          "internalType": "uint256",
          "name": "",
          "type": "uint256"
        }
      ],
      "stateMutability": "view",
      "type": "function"
    },
    {
      "inputs": [
        {
          "internalType": "address",
          "name": "",
          "type": "address"
        },
        {
          "internalType": "uint256",
          "name": "",
          "type": "uint256"
        }
      ],
      "name": "recipientMap",
      "outputs": [
        {
          "internalType": "uint256",
          "name": "",
          "type": "uint256"
        }
      ],
      "stateMutability": "view",
      "type": "function"
    },
    {
      "inputs": [
        {
          "internalType": "uint256",
          "name": "index",
          "type": "uint256"
        }
      ],
      "name": "revokeCertificate",
      "outputs": [],
      "stateMutability": "nonpayable",
      "type": "function"
    }
  ],
  "bytecode": "0x608060405234801561001057600080fd5b50611886806100206000396000f3fe608060405234801561001057600080fd5b50600436106100b45760003560e01c8063663b3e2211610071578063663b3e22146101b55780637a42a9cd146101e9578063b56a912814610219578063bfd64c8f14610249578063c6f3a9aa14610279578063f814bcd2146102a9576100b4565b806306f5497e146100b957806330a1c0a6146100d557806338e2ca521461010957806344f37815146101395780634901447214610155578063538b907914610185575b600080fd5b6100d360048036038101906100ce9190610e52565b6102d9565b005b6100ef60048036038101906100ea9190610e52565b61052a565b604051610100959493929190610f78565b60405180910390f35b610123600480360381019061011e9190610ffe565b6106ce565b60405161013091906110e9565b60405180910390f35b610153600480360381019061014e919061126c565b610739565b005b61016f600480360381019061016a91906112db565b610a3e565b60405161017c919061131b565b60405180910390f35b61019f600480360381019061019a91906112db565b610a6f565b6040516101ac919061131b565b60405180910390f35b6101cf60048036038101906101ca9190610e52565b610aa0565b6040516101e0959493929190611336565b60405180910390f35b61020360048036038101906101fe9190610ffe565b610bae565b60405161021091906113ab565b60405180910390f35b610233600480360381019061022e91906113c6565b610c19565b604051610240919061131b565b60405180910390f35b610263600480360381019061025e9190610ffe565b610c4a565b6040516102709190611406565b60405180910390f35b610293600480360381019061028e9190611421565b610c7d565b6040516102a091906110e9565b60405180910390f35b6102c360048036038101906102be9190611421565b610d14565b6040516102d091906110e9565b60405180910390f35b600081815481106102ed576102ec61144e565b5b906000526020600020906005020160010160009054906101000a900473ffffffffffffffffffffffffffffffffffffffff1673ffffffffffffffffffffffffffffffffffffffff163373ffffffffffffffffffffffffffffffffffffffff1614806103c85750600081815481106103675761036661144e565b5b906000526020600020906005020160020160009054906101000a900473ffffffffffffffffffffffffffffffffffffffff1673ffffffffffffffffffffffffffffffffffffffff163373ffffffffffffffffffffffffffffffffffffffff16145b806104555750600460008083815481106103e5576103e461144e565b5b906000526020600020906005020160000154815260200190815260200160002060009054906101000a900473ffffffffffffffffffffffffffffffffffffffff1673ffffffffffffffffffffffffffffffffffffffff163373ffffffffffffffffffffffffffffffffffffffff16145b610494576040517f08c379a000000000000000000000000000000000000000000000000000000000815260040161048b906114ef565b60405180910390fd5b600081815481106104a8576104a761144e565b5b90600052602060002090600502016000808201600090556001820160006101000a81549073ffffffffffffffffffffffffffffffffffffffff02191690556002820160006101000a81549073ffffffffffffffffffffffffffffffffffffffff021916905560038201600090556004820160006105259190610dab565b505050565b6000806000606060008086815481106105465761054561144e565b5b9060005260206000209060050201600001546000878154811061056c5761056b61144e565b5b906000526020600020906005020160010160009054906101000a900473ffffffffffffffffffffffffffffffffffffffff16600088815481106105b2576105b161144e565b5b906000526020600020906005020160020160009054906101000a900473ffffffffffffffffffffffffffffffffffffffff16600089815481106105f8576105f761144e565b5b906000526020600020906005020160040160008a8154811061061d5761061c61144e565b5b90600052602060002090600502016003015481805461063b9061153e565b80601f01602080910402602001604051908101604052809291908181526020018280546106679061153e565b80156106b45780601f10610689576101008083540402835291602001916106b4565b820191906000526020600020905b81548152906001019060200180831161069757829003601f168201915b505050505091509450945094509450945091939590929450565b60606001600083815260200190815260200160002080548060200260200160405190810160405280929190818152602001828054801561072d57602002820191906000526020600020905b815481526020019060010190808311610719575b50505050509050919050565b6000806001816001815401808255809150500390600052602060002090600502019050838160000181905550338160010160006101000a81548173ffffffffffffffffffffffffffffffffffffffff021916908373ffffffffffffffffffffffffffffffffffffffff160217905550828160020160006101000a81548173ffffffffffffffffffffffffffffffffffffffff021916908373ffffffffffffffffffffffffffffffffffffffff160217905550818160040190816107fc919061171b565b5042816003018190555060016000858152602001908152602001600020600160008054905061082b919061181c565b9080600181540180825580915050600190039060005260206000200160009091909190915055600260003373ffffffffffffffffffffffffffffffffffffffff1673ffffffffffffffffffffffffffffffffffffffff16815260200190815260200160002060016000805490506108a2919061181c565b9080600181540180825580915050600190039060005260206000200160009091909190915055600360008473ffffffffffffffffffffffffffffffffffffffff1673ffffffffffffffffffffffffffffffffffffffff1681526020019081526020016000206001600080549050610919919061181c565b9080600181540180825580915050600190039060005260206000200160009091909190915055600073ffffffffffffffffffffffffffffffffffffffff166004600086815260200190815260200160002060009054906101000a900473ffffffffffffffffffffffffffffffffffffffff1673ffffffffffffffffffffffffffffffffffffffff16036109f957336004600086815260200190815260200160002060006101000a81548173ffffffffffffffffffffffffffffffffffffffff021916908373ffffffffffffffffffffffffffffffffffffffff1602179055505b6001600080549050610a0b919061181c565b847fb373023449b41c09a963fbc6f475bf6574114ed41b6a41eb8ee5ac78301ff0ff60405160405180910390a350505050565b60026020528160005260406000208181548110610a5a57600080fd5b90600052602060002001600091509150505481565b60036020528160005260406000208181548110610a8b57600080fd5b90600052602060002001600091509150505481565b60008181548110610ab057600080fd5b90600052602060002090600502016000915090508060000154908060010160009054906101000a900473ffffffffffffffffffffffffffffffffffffffff16908060020160009054906101000a900473ffffffffffffffffffffffffffffffffffffffff1690806003015490806004018054610b2b9061153e565b80601f0160208091040260200160405190810160405280929190818152602001828054610b579061153e565b8015610ba45780601f10610b7957610100808354040283529160200191610ba4565b820191906000526020600020905b815481529060010190602001808311610b8757829003601f168201915b5050505050905085565b60006004600083815260200190815260200160002060009054906101000a900473ffffffffffffffffffffffffffffffffffffffff1673ffffffffffffffffffffffffffffffffffffffff163373ffffffffffffffffffffffffffffffffffffffff16149050919050565b60016020528160005260406000208181548110610c3557600080fd5b90600052602060002001600091509150505481565b60046020528060005260406000206000915054906101000a900473ffffffffffffffffffffffffffffffffffffffff1681565b6060600260008373ffffffffffffffffffffffffffffffffffffffff1673ffffffffffffffffffffffffffffffffffffffff168152602001908152602001600020805480602002602001604051908101604052809291908181526020018280548015610d0857602002820191906000526020600020905b815481526020019060010190808311610cf4575b50505050509050919050565b6060600360008373ffffffffffffffffffffffffffffffffffffffff1673ffffffffffffffffffffffffffffffffffffffff168152602001908152602001600020805480602002602001604051908101604052809291908181526020018280548015610d9f57602002820191906000526020600020905b815481526020019060010190808311610d8b575b50505050509050919050565b508054610db79061153e565b6000825580601f10610dc95750610de8565b601f016020900490600052602060002090810190610de79190610deb565b5b50565b5b80821115610e04576000816000905550600101610dec565b5090565b6000604051905090565b600080fd5b600080fd5b6000819050919050565b610e2f81610e1c565b8114610e3a57600080fd5b50565b600081359050610e4c81610e26565b92915050565b600060208284031215610e6857610e67610e12565b5b6000610e7684828501610e3d565b91505092915050565b6000819050919050565b610e9281610e7f565b82525050565b600073ffffffffffffffffffffffffffffffffffffffff82169050919050565b6000610ec382610e98565b9050919050565b610ed381610eb8565b82525050565b600081519050919050565b600082825260208201905092915050565b60005b83811015610f13578082015181840152602081019050610ef8565b60008484015250505050565b6000601f19601f8301169050919050565b6000610f3b82610ed9565b610f458185610ee4565b9350610f55818560208601610ef5565b610f5e81610f1f565b840191505092915050565b610f7281610e1c565b82525050565b600060a082019050610f8d6000830188610e89565b610f9a6020830187610eca565b610fa76040830186610eca565b8181036060830152610fb98185610f30565b9050610fc86080830184610f69565b9695505050505050565b610fdb81610e7f565b8114610fe657600080fd5b50565b600081359050610ff881610fd2565b92915050565b60006020828403121561101457611013610e12565b5b600061102284828501610fe9565b91505092915050565b600081519050919050565b600082825260208201905092915050565b6000819050602082019050919050565b61106081610e1c565b82525050565b60006110728383611057565b60208301905092915050565b6000602082019050919050565b60006110968261102b565b6110a08185611036565b93506110ab83611047565b8060005b838110156110dc5781516110c38882611066565b97506110ce8361107e565b9250506001810190506110af565b5085935050505092915050565b60006020820190508181036000830152611103818461108b565b905092915050565b61111481610eb8565b811461111f57600080fd5b50565b6000813590506111318161110b565b92915050565b600080fd5b600080fd5b7f4e487b7100000000000000000000000000000000000000000000000000000000600052604160045260246000fd5b61117982610f1f565b810181811067ffffffffffffffff8211171561119857611197611141565b5b80604052505050565b60006111ab610e08565b90506111b78282611170565b919050565b600067ffffffffffffffff8211156111d7576111d6611141565b5b6111e082610f1f565b9050602081019050919050565b82818337600083830152505050565b600061120f61120a846111bc565b6111a1565b90508281526020810184848401111561122b5761122a61113c565b5b6112368482856111ed565b509392505050565b600082601f83011261125357611252611137565b5b81356112638482602086016111fc565b91505092915050565b60008060006060848603121561128557611284610e12565b5b600061129386828701610fe9565b93505060206112a486828701611122565b925050604084013567ffffffffffffffff8111156112c5576112c4610e17565b5b6112d18682870161123e565b9150509250925092565b600080604083850312156112f2576112f1610e12565b5b600061130085828601611122565b925050602061131185828601610e3d565b9150509250929050565b60006020820190506113306000830184610f69565b92915050565b600060a08201905061134b6000830188610e89565b6113586020830187610eca565b6113656040830186610eca565b6113726060830185610f69565b81810360808301526113848184610f30565b90509695505050505050565b60008115159050919050565b6113a581611390565b82525050565b60006020820190506113c0600083018461139c565b92915050565b600080604083850312156113dd576113dc610e12565b5b60006113eb85828601610fe9565b92505060206113fc85828601610e3d565b9150509250929050565b600060208201905061141b6000830184610eca565b92915050565b60006020828403121561143757611436610e12565b5b600061144584828501611122565b91505092915050565b7f4e487b7100000000000000000000000000000000000000000000000000000000600052603260045260246000fd5b7f596f7520617265206e6f7420616c6c6f77656420746f207265766f6b6520746860008201527f69732063657274696669636174652e0000000000000000000000000000000000602082015250565b60006114d9602f83610ee4565b91506114e48261147d565b604082019050919050565b60006020820190508181036000830152611508816114cc565b9050919050565b7f4e487b7100000000000000000000000000000000000000000000000000000000600052602260045260246000fd5b6000600282049050600182168061155657607f821691505b6020821081036115695761156861150f565b5b50919050565b60008190508160005260206000209050919050565b60006020601f8301049050919050565b600082821b905092915050565b6000600883026115d17fffffffffffffffffffffffffffffffffffffffffffffffffffffffffffffffff82611594565b6115db8683611594565b95508019841693508086168417925050509392505050565b6000819050919050565b600061161861161361160e84610e1c565b6115f3565b610e1c565b9050919050565b6000819050919050565b611632836115fd565b61164661163e8261161f565b8484546115a1565b825550505050565b600090565b61165b61164e565b611666818484611629565b505050565b5b8181101561168a5761167f600082611653565b60018101905061166c565b5050565b601f8211156116cf576116a08161156f565b6116a984611584565b810160208510156116b8578190505b6116cc6116c485611584565b83018261166b565b50505b505050565b600082821c905092915050565b60006116f2600019846008026116d4565b1980831691505092915050565b600061170b83836116e1565b9150826002028217905092915050565b61172482610ed9565b67ffffffffffffffff81111561173d5761173c611141565b5b611747825461153e565b61175282828561168e565b600060209050601f8311600181146117855760008415611773578287015190505b61177d85826116ff565b8655506117e5565b601f1984166117938661156f565b60005b828110156117bb57848901518255600182019150602085019450602081019050611796565b868310156117d857848901516117d4601f8916826116e1565b8355505b6001600288020188555050505b505050505050565b7f4e487b7100000000000000000000000000000000000000000000000000000000600052601160045260246000fd5b600061182782610e1c565b915061183283610e1c565b925082820390508181111561184a576118496117ed565b5b9291505056fea2646970667358221220f99ced537c5a9d1a6942821039f6469f0d5a08d226e160184a9e43a5fe172c5c64736f6c63430008110033",
  "linkReferences": {},
  "deployedLinkReferences": {}
}